:100000000C942A000C9447000C9447000C94470071
:100010000C9447000C9447000C9447000C94470044
:100020000C9447000C9447000C9447000C94470034
:100030000C9447000C9447000C9447000C94470024
:100040000C9447000C9447000C9447000C94470014
:100050000C94470011241FBECFE5D8E0DEBFCDBF12
:1000600013E0A0E6B0E0E2E7F6E102C005900D92F1
:10007000AC36B107D9F713E0ACE6B3E001C01D928E
:10008000A037B107E1F70E94C0060C94370B0C941F
:100090000000ACE0B0E0EFE4F0E00C94FE06698311
:1000A0007A838B839C83CE010196BE016B5F7F4F69
:1000B0000E943B028D81823081F1823070F1843068
:1000C00021F48E81882369F10AC02F81388537FD9C
:1000D00024C06E812F3131053CF0662311F120E000
:1000E00030E040E050E821C08EE190E0821B930BAD
:1000F00029853A854B855C8504C05695479537958B
:1001000027958A95D2F7662381F0509540953095D2
:1001100021953F4F4F4F5F4F08C020E030E0A901CD
:1001200004C02FEF3FEF4FEF5FE7B901CA012C96F4
:10013000E2E00C941A07A8E0B0E0E1EAF0E00C94E9
:10014000F8067B018C011A82611571058105910504
:1001500019F482E089835FC083E089838EE1C82E31
:10016000D12CDC82CB82ED82FE820F831887C801FE
:10017000B7010E941301FC013197F7FF3AC0AA278B
:10018000BB27AE1BBF0B21E030E040E050E00A2E61
:1001900004C0220F331F441F551F0A94D2F7215069
:1001A0003040404050402E213F214023512361E008
:1001B00070E080E090E0211531054105510519F40A
:1001C00060E070E0CB0104C016950795F794E794C2
:1001D000AA95D2F7E62AF72A082B192BED82FE8280
:1001E0000F8318878EE190E08E1B9F0B9C838B837F
:1001F00012C0309781F00E2E04C0EE0CFF1C001FC1
:10020000111F0A94D2F7ED82FE820F831887CE1A4F
:10021000DF0ADC82CB82CE0101960E946D01289616
:10022000E8E00C941407AF92BF92CF92DF92EF9266
:10023000FF920F931F937B018C0180E0E81680E012
:10024000F80681E0080780E0180758F4EFEFEE1693
:10025000F1040105110509F090F480E090E0DC0163
:1002600017C0F0E0EF16F0E0FF06F0E00F07F1E056
:100270001F0750F480E190E0A0E0B0E009C088E002
:1002800090E0A0E0B0E004C088E190E0A0E0B0E041
:1002900020E230E040E050E0281B390B4A0B5B0BBA
:1002A0005701680104C0D694C794B794A7948A955F
:1002B000D2F7D601C5018B599D4FFC018081281BC7
:1002C000310941095109C9011F910F91FF90EF9028
:1002D000DF90CF90BF90AF900895EF92FF920F9371
:1002E0001F93CF93DF93FC01248135814681578191
:1002F00061818081823020F44061EFEFF0E0A3C0A3
:10030000843009F49BC0823009F492C02115310574
:100310004105510509F48FC00280F381E02D8FEF74
:10032000E238F8070CF05AC0C2E8DFEFCE1BDF0B53
:10033000CA31D1056CF579018A010C2E04C01695DD
:100340000795F794E7940A94D2F781E090E0A0E053
:10035000B0E00C2E04C0880F991FAA1FBB1F0A947F
:10036000D2F70197A109B10982239323A423B523CE
:1003700021E030E040E050E00097A105B10519F41C
:1003800020E030E0A9012E293F29402B512B03C04A
:1003900020E030E0A901DA01C9018F779070A070E8
:1003A000B07080349105A105B10539F427FF09C06B
:1003B000205C3F4F4F4F5F4F04C0215C3F4F4F4F7A
:1003C0005F4FE1E0F0E0203080E0380780E0480750
:1003D00080E4580728F5E0E0F0E022C0E038F105BD
:1003E0006CF5E158FF4FDA01C9018F779070A0706A
:1003F000B07080349105A105B10539F427FF09C01B
:10040000205C3F4F4F4F5F4F04C0215C3F4F4F4F29
:100410005F4F57FF05C056954795379527953196FD
:1004200087E056954795379527958A95D1F70BC064
:10043000E0E0F0E005C0E0E0F0E005C0EFEFF0E064
:1004400020E030E0A9018E2F879588278795942F8B
:100450009F77679566276795E695E22EA92FA82BCB
:10046000FE2FF62B622F732F8A2F9F2FCDB7DEB76B
:10047000E6E00C941607DC01FB012C9111963C91EF
:10048000119712968C911297482F4F7750E0982F22
:10049000991F9927991F13966C911397862F880F90
:1004A000892B90E0661F6627661F6183009739F5E8
:1004B000211531054105510511F482E029C082E87A
:1004C0009FEF9383828367E0220F331F441F551FE2
:1004D0006A95D1F783E0808309C0220F331F441F40
:1004E000551F82819381019793838283203080E01E
:1004F000380780E0480780E4580778F320C08F3F32
:10050000910579F4211531054105510519F484E06F
:100510008083089544FF03C081E0808310C010826F
:100520000EC08F5790409383828383E0808387E05F
:10053000220F331F441F551F8A95D1F7506424831F
:10054000358346835783089510BC87E689B980B503
:10055000866880BD88E18AB908955D9BFECF8CB91D
:100560000895EF92FF92CF93DF93E82EE7017E018B
:10057000F92EE70102C00E94AD0289918823D9F7C4
:100580008DE00E94AD028AE00E94AD02DF91CF9122
:10059000FF90EF900895EF92FF92CF93DF93E82EB4
:1005A000E7017E01F92EE70102C00E94AD028991A8
:1005B0008823D9F78DE00E94AD02DF91CF91FF90A3
:1005C000EF9008955F9BFECF8CB108958F929F921C
:1005D000BF92CF92DF92EF92FF920F931F93CF9330
:1005E000DF938C01B62EC72EE62FF72FEF0109906F
:1005F0000020E9F72197CE1BDF0B80E6E82E80E094
:10060000F82EDD2448018C1A9D0A11C08D2D8336E9
:1006100008F0DD240E94E2022D2D30E0F801E20F07
:10062000F31F80832C173D070CF07401D394C7018E
:100630006B2D7C2D0E947308009771F4C70161E651
:1006400070E00E947308009739F4C70167E670E014
:100650000E9473080097D1F2C8016B2D7C2D0E9477
:100660007308009761F4C80167E670E00E947308A0
:1006700021E030E0009729F420E030E002C021E0E2
:1006800030E0C901DF91CF911F910F91FF90EF9062
:10069000DF90CF90BF909F908F900895DF93CF937E
:1006A000CDB7DEB7C456D0400FB6F894DEBF0FBE4C
:1006B000CDBF89E790E00E94B1028FEF93E2A4EFF3
:1006C00081509040A040E1F700C0000080E890E039
:1006D0000E94B102CE0101966CE870E00E94E60231
:1006E000AA9A8FEF93E2A4EF81509040A040E1F7E7
:1006F00000C00000CC59DF4F0FB6F894DEBF0FBE2C
:10070000CDBFCF91DF910895DF93CF93CDB7DEB703
:10071000C456D0400FB6F894DEBF0FBECDBF8FE8F1
:1007200090E00E94B102CE0101966CE870E00E9458
:10073000E6028FEF91EEA4E081509040A040E1F7F7
:1007400000C00000CC59DF4F0FB6F894DEBF0FBEDB
:10075000CDBFCF91DF9108950F931F93DF93CF9378
:10076000CDB7DEB7C456D0400FB6F894DEBF0FBE8B
:10077000CDBF8E010F5F1F4F81EA90E00E94B10252
:10078000C8016CE870E00E94E6022FEF3BE742E907
:10079000215030404040E1F700C00000009761F375
:1007A0008FEF9BE7A2E981509040A040E1F700C0A5
:1007B0000000CC59DF4F0FB6F894DEBF0FBECDBF9F
:1007C000CF91DF911F910F9108958F929F92AF92D9
:1007D000BF92CF92DF92EF92FF920F931F93DF931E
:1007E000CF93CDB7DEB7CE5CD0400FB6F894DEBF66
:1007F0000FBECDBF7B018C0185EB90E00E94B10262
:100800008FEF93ECA9E081509040A040E1F700C049
:100810000000A99ADE011796E9EEF0E08DE0019064
:100820000D928150E1F7FE01749687E5DF011D927C
:100830008A95E9F7CE0185599F4FDC01EDE4F1E09F
:100840002CE001900D922150E1F70C9628E5FC0177
:1008500011922A95E9F700D000D000D08DB69EB64F
:100860000894811C911C33E0C32ED12CCC0EDD1ECC
:10087000ADB7BEB71296DC92CE9211972CEDA22E98
:1008800020E0B22EF401B382A282C801B7010E9417
:100890004900D40115967C936E9314970E948D089D
:1008A000EDB7FEB736960FB6F894FEBF0FBEEDBF9C
:1008B00097E0E92EF12CEC0EFD1EC701B6010E9457
:1008C0006108C7016FED70E00E946108F7010190B7
:1008D0000020E9F7EE19FF0900D000D000D08DB755
:1008E0009EB701966E010894C11CD11CADB7BEB76E
:1008F0001296DC92CE921197DC011396BC92AE92C6
:10090000129733961596FC93EE9314970E948D08D8
:10091000EDB7FEB736960FB6F894FEBF0FBEEDBF2B
:100920008E0105591F4FC801B6010E946108C80118
:100930000E94B1028FEF93ECA9E081509040A0405B
:10094000E1F700C00000C7010E94B1028DE00E94E3
:10095000AD028AE00E94AD028FEF91EEA4E08150DB
:100960009040A040E1F700C00000C253DF4F0FB637
:10097000F894DEBF0FBECDBFCF91DF911F910F91D5
:10098000FF90EF90DF90CF90BF90AF909F908F90AF
:100990000895FF920F931F93DF93CF93CDB7DEB7E8
:1009A000C456D0400FB6F894DEBF0FBECDBF8E0147
:1009B0000F5F1F4FC80161EB71E00E94E6020E94C9
:1009C000E202F82EC80167EB71E00E94E6028F2D6B
:1009D000CC59DF4F0FB6F894DEBF0FBECDBFCF911D
:1009E000DF911F910F91FF900895DF93CF93CDB7C3
:1009F000DEB7C456D0400FB6F894DEBF0FBECDBFF1
:100A0000CE01019666EC71E00E94E602CC59DF4F00
:100A10000FB6F894DEBF0FBECDBFCF91DF91089522
:100A20008F929F92AF92BF92CF92DF92EF92FF92FE
:100A30000F931F93CF93DF93982EC92ED62EE72EB8
:100A4000E82FF92FEF0109900020E9F72197CE1B3D
:100A5000DF0BE62FF72FDF010D900020E9F78D0166
:100A6000015010400E1B1F0BCE01800F911F0196ED
:100A70000E942507F92EA82EB92E692D7C2DAE01D6
:100A80000E945808CA0DDB1D0F5F1F4FCE016D2D50
:100A90007E2DA8010E9458088A2D9F2DDF91CF91AD
:100AA0001F910F91FF90EF90DF90CF90BF90AF908C
:100AB0009F908F900895FC0101900020E9F73197F5
:100AC000E81BF90BE80FF91F608308956F927F927E
:100AD0008F929F92AF92BF92CF92DF92EF92FF924E
:100AE0000F931F93DF93CF93CDB7DEB728970FB641
:100AF000F894DEBF0FBECDBF5C01962E872E3A0163
:100B000000D000D000D0EDB7FEB731968E010F5F58
:100B10001F4FADB7BEB712961C930E9311975DECA5
:100B2000E52E51E0F52EF382E282DC018D919C915D
:100B3000958384830E948D08EDB7FEB7319645E01A
:100B4000C42ED12CCC0EDD1EADB7BEB71296DC92F2
:100B5000CE921197F382E282D50112968D919C91EB
:100B60001397958384830E948D088DB79EB7069650
:100B70000FB6F8949EBF0FBE8DBF80ED91E0B80117
:100B80000E9410056DEE71E00E941005B6010E94F2
:100B900010056FEE71E00E941005BC01892D982DA3
:100BA0000E946C08A92DB82DFD0101900020E9F7E5
:100BB0003197EA1BFB0B00D000D000D02DB73EB719
:100BC0002F5F3F4FADB7BEB712967C926E921197D2
:100BD0008CED90E0D90113969C938E931297159605
:100BE000FC93EE9314970E948D088DB79EB70696DE
:100BF0000FB6F8949EBF0FBE8DBF28960FB6F8941F
:100C0000DEBF0FBECDBFCF91DF911F910F91FF903F
:100C1000EF90DF90CF90BF90AF909F908F907F909C
:100C20006F900895FF920F931F93DF93CF93CDB7EB
:100C3000DEB7C851D5400FB6F894DEBF0FBECDBFAA
:100C4000F82ECB01BE016F5C7E4FAE014F5F5F4F50
:100C50000E946605CE0187599F4FDC01EDE4F1E06B
:100C60002CE001900D922150E1F70C9628E5DC0173
:100C70001D922A95E9F78E0107591F4FC8016F2D64
:100C80000E945B05C80165EF71E00E946108C80120
:100C9000BE016F5F7F4F0E946108C8010E94B102D0
:100CA0008E010B5F1F4FC80167EF71E00E94E602E3
:100CB0008FEF91EEA4E081509040A040E1F700C09A
:100CC0000000CE018F5C9E4F0E94B102C80169EF07
:100CD00071E00E94E6028FEF93EDA0E38150904017
:100CE000A040E1F700C000009E0123533F4FD9010F
:100CF000E1E0F2E08EE001900D928150E1F7225F99
:100D00003F4F86E5D9011D928A95E9F7CE018353BD
:100D10009F4F6F2D0E945B0581E092E00E94B1021F
:100D2000C85EDA4F0FB6F894DEBF0FBECDBFCF91CD
:100D3000DF911F910F91FF90089584E886B93E9A44
:100D40003D98089597B1987F97B997B1982B97B927
:100D5000DB98369A3699FECF24B135B1C901089592
:100D6000CF93DF93EC0180E00E94A20699838883F1
:100D700081E00E94A2069B838A83DF91CF91089530
:100D80000F931F93DF93CF9300D000D0CDB7DEB782
:100D90000E94A4020E949D060E944E0380E690E0FD
:100DA000BC010E94AC038FEF84BBA89A8E010F5F39
:100DB0001F4F8FEF97EAA1E681509040A040E1F7E6
:100DC00000C00000C8010E94B00669817A8180E0FD
:100DD00090E00E949B000E94E503EBCF2F923F9290
:100DE0004F925F926F927F928F929F92AF92BF923B
:100DF000CF92DF92EF92FF920F931F93CF93DF93E7
:100E0000CDB7DEB7CA1BDB0B0FB6F894DEBF0FBE43
:100E1000CDBF09942A88398848885F846E847D8490
:100E20008C849B84AA84B984C884DF80EE80FD8092
:100E30000C811B81AA81B981CE0FD11D0FB6F89408
:100E4000DEBF0FBECDBFED010895CF93DF9382309B
:100E5000910510F482E090E0E0916E03F0916F0351
:100E600040E050E020E030E026C0608171816817EA
:100E70007907E0F06817790781F482819381211561
:100E8000310531F0D90113969C938E9312972BC0A4
:100E900090936F0380936E0326C04115510519F09E
:100EA0006417750718F4AB01E901DF019F01728136
:100EB0006381E72FF62F3097C1F64115510501F1F7
:100EC000481B590B4430510580F412968D919C912A
:100ED0001397209719F09B838A8304C090936F0324
:100EE00080936E03FD01329646C0FD01E40FF51FAD
:100EF000819391934250504011965C934E933BC026
:100F000020916C0330916D032115310541F420913E
:100F100067033091680330936D0320936C03209135
:100F2000690330916A032115310541F42DB73EB7AD
:100F30004091650350916603241B350BE0916C03CF
:100F4000F0916D03E217F307A0F42E1B3F0B281757
:100F5000390778F0AC014E5F5F4F2417350748F032
:100F60004E0F5F1F50936D0340936C0381939193D9
:100F700002C0E0E0F0E0CF01DF91CF910895CF9380
:100F8000DF93009709F491C0FC013297138212821B
:100F900060916E0370916F036115710581F420817A
:100FA0003181280F391F80916C0390916D03821756
:100FB000930799F5F0936D03E0936C0376C0DB0122
:100FC00080E090E002C0CD01D901AE17BF0748F420
:100FD00012962D913C91139721153105A1F7CD0162
:100FE00021C0B383A283EF01499159919E01240F3F
:100FF000351FA217B30779F42D913C911197240F57
:10100000351F2E5F3F4F3183208312962D913C91E7
:10101000139733832283009729F4F0936F03E093AF
:101020006E0343C0DC011396FC93EE9312974D912F
:101030005D91A40FB51FEA17FB0769F42081318188
:10104000240F351F2E5F3F4FEC0139832883228107
:1010500033813B832A83E0E0F0E002C0FB01BC0166
:10106000DB0112968D919C9113970097B9F79B0124
:101070002E5F3F4F8D919C911197820F931F40914E
:101080006C0350916D034817590779F4309729F490
:1010900010926F0310926E0302C0138212822250CC
:1010A000304030936D0320936C03DF91CF9108950E
:1010B000FB01DC0102C001900D9241505040D8F775
:1010C0000895FB01DC010D900020E9F711970190D4
:1010D0000D920020E1F70895FB01DC0101900D92D3
:1010E0000020E1F70895FB0151915523A9F0BF01BC
:1010F000DC014D9145174111E1F759F4CD01019003
:10110000002049F04D9140154111C9F3FB014111F7
:10111000EFCF81E090E001970895AEE0B0E0E3E921
:10112000F8E00C94FC060D891E8986E08C831A83F6
:1011300009838FEF9FE79E838D839E01275E3F4F3C
:10114000CE0101966F89788DA9010E94B008EF81C8
:10115000F885E00FF11F10822E96E4E00C9418073A
:10116000ACE0B0E0E6EBF8E00C94EE066C011B019D
:101170008A01FC0117821682838181FFD1C12E0171
:101180000894411C511CF6019381F10193FD859156
:1011900093FF81911F01882309F4BEC1853239F480
:1011A00093FD859193FF81911F01853229F490E091
:1011B000B6010E94AD0AE7CFEE24FF2420E02032E2
:1011C000B0F48B3269F08C3228F4803251F08332E3
:1011D00071F40BC08D3239F0803349F421602CC09A
:1011E0002260246029C0286027C0206125C027FD17
:1011F0002CC0382F30533A3098F426FF08C08E2D7B
:10120000880FE82EEE0CEE0CE80EE30E15C08F2DC5
:10121000880FF82EFF0CFF0CF80EF30E20620CC0A6
:101220008E3221F426FD78C1206406C08C3611F47C
:10123000206802C0883649F4F10193FD859193FF3F
:1012400081911F01882309F0BACF982F95549330CC
:1012500018F09052933028F40C5F1F4FFFE3F9838E
:101260000DC0833631F0833771F0833509F060C0EB
:1012700022C0F801808189830E5F1F4F420171E017
:10128000A72EB12C16C062E0662E712C600E711E66
:10129000F8018080918026FF03C06E2D70E002C0AF
:1012A0006FEF7FEFC4012C870E94A20A5C018301CB
:1012B0002C852F7717C052E0652E712C600E711EA1
:1012C000F8018080918026FF03C06E2D70E002C07F
:1012D0006FEF7FEFC4012C870E94970A5C012C8579
:1012E0002068830123FD20C008C080E290E0B601A1
:1012F0002C870E94AD0AFA942C858F2D90E0A816B9
:10130000B90698F311C0F40127FD859127FF81915B
:101310004F0190E0B6012C870E94AD0A2C85F11098
:10132000FA940894A108B108A114B10461F7F1C0BE
:10133000843611F0893649F527FF08C0F80160812D
:101340007181828193810C5F1F4F09C0F801608118
:101350007181882777FD8095982F0E5F1F4F4FE68C
:10136000B42EB22297FF09C0909580957095619533
:101370007F4F8F4F9F4FF0E8BF2AA2012AE030E055
:101380000E94D90A782E741845C0853731F43FEE93
:10139000B32EB2222AE030E025C099EFB92EB22256
:1013A0008F36C1F0803720F4883509F0B5C00DC004
:1013B000803721F0883709F0AFC002C020E1B22A9F
:1013C000B4FE0BC084E0B82A08C0B4FE09C0E6E051
:1013D000BE2A06C028E030E005C020E130E002C0AF
:1013E00020E132E0B7FE08C0F8016081718182819E
:1013F00093810C5F1F4F07C0F8016081718180E00D
:1014000090E00E5F1F4FA2010E94D90A782E741837
:10141000FFE7BF22B6FE0BC02EEFB2227E1438F4D7
:10142000B4FE07C0B2FC05C08FEEB82202C0A72CE4
:1014300001C0AE2C8B2D90E0B4FE0DC0FE01E70D77
:10144000F11D2081203319F4E9EEBE2209C0A394D6
:10145000B2FE06C004C086789070009709F0A3948D
:101460008B2C9924B3FC14C0B0FE0FC0AF1428F429
:10147000E72CEF0CEA18AF2C08C0E72C06C080E27E
:1014800090E0B6010E94AD0AA394AF14C0F304C06B
:10149000AF1410F4FA1801C0FF2484FE0FC080E3DB
:1014A00090E0B6010E94AD0A82FE1FC081FE03C01B
:1014B00088E590E010C088E790E00DC0C401867810
:1014C0009070009791F081FC02C080E201C08BE235
:1014D000B7FC8DE290E0B6010E94AD0A06C080E341
:1014E00090E0B6010E94AD0AEA947E14C0F37A94AB
:1014F000F201E70DF11D808190E0B6010E94AD0A76
:101500007720A9F706C080E290E0B6010E94AD0AFC
:10151000FA94FF20C1F737CEF6012681378102C049
:101520002FEF3FEFC9012C96E2E10C940A07FC0172
:101530000590615070400110D8F7809590958E0FFE
:101540009F1F0895FC016150704001900110D8F771
:10155000809590958E0F9F1F08950F931F93CF93A3
:10156000DF938C01EB018B8181FF1BC082FF0DC0DB
:101570002E813F818C819D812817390764F4E88191
:10158000F9810193F983E88306C0E885F985802F06
:101590000995009731F48E819F8101969F838E83F8
:1015A00002C00FEF1FEFC801DF91CF911F910F9184
:1015B0000895FA01AA27283051F1203181F1E894E9
:1015C0006F936E7F6E5F7F4F8F4F9F4FAF4FB1E036
:1015D0003ED0B4E03CD0670F781F891F9A1FA11D31
:1015E000680F791F8A1F911DA11D6A0F711D811D32
:1015F000911DA11D20D009F468943F912AE0269FF7
:1016000011243019305D3193DEF6CF010895462F55
:101610004770405D4193B3E00FD0C9F7F6CF462F36
:101620004F70405D4A3318F0495D31FD405241939F
:1016300002D0A9F7EACFB4E0A6959795879577955C
:101640006795BA95C9F700976105710508959B01E3
:10165000AC010A2E06945795479537952795BA956C
:10166000C9F7620F731F841F951FA01D0895F8947A
:02167000FFCFAA
:10167200004552524F5200414C5245414459204379
:101682004F4E4E45435445440041542B525354004F
:1016920041542B43574D4F44453D31004F4B004180
:1016A200542B4349505345525645523D312C383004
:1016B2000041542B43574A41503D22646C696E6B82
:1016C200222C22220041542B43495053544152545C
:1016D2003D22544350222C223139322E3136382EBB
:1016E200302E313032222C31313131002569002047
:1016F200485454502F312E3100474554202F3F6714
:101702005F6D61673D000000000000000000000006
:1017120000000000000000000000000000000000C7
:1017220000000000000000000000000000000000B7
:1017320000000000000000000000000000000000A7
:101742000000000000000000000000000000000097
:101752000000000000000000000000000041542BC7
:1017620043495053454E443D000000000000000034
:101772000000000000000000000000000000000067
:101782000000000000000000000000000000000057
:101792000000000000000000000000000000000047
:1017A2000000000000000000000000000000000037
:1017B2000000000000000000000000000000000027
:1017C200002B4950442C00474554202F20485454A4
:1017D200502F312E3100434C4F53454400257500A4
:1017E2003C68313E45617274687175616B65206455
:1017F2006174613C2F68313E3C68323E0020003CFF
:101802002F68323E002C003E0053454E44204F4B81
:101812000041542B434950434C4F53453D35000042
:1018220000000000000000000000000000000000B6
:1018320000000000000000000000000000000000A6
:101842000000000000000000000000000000000096
:101852000000000000000000000000000000000086
:101862000000000000000000000000000000000076
:101872000000000000000102020303030304040449
:10188200040404040405050505050505050505050B
:1018920005050505050606060606060606060606EB
:1018A20006060606060606060606060606060606D6
:1018B20006060606060707070707070707070707BB
:1018C20007070707070707070707070707070707A6
:1018D2000707070707070707070707070707070796
:1018E2000707070707070707070707070707070786
:1018F200070707070708080808080808080808086B
:101902000808080808080808080808080808080855
:101912000808080808080808080808080808080845
:101922000808080808080808080808080808080835
:101932000808080808080808080808080808080825
:101942000808080808080808080808080808080815
:101952000808080808080808080808080808080805
:1019620008080808080808080808080808080808F5
:0C197200080808080820007003000000AE
:00000001FF
