:100000000C942A000C9447000C9447000C94470071
:100010000C9447000C9447000C9447000C94470044
:100020000C9447000C9447000C9447000C94470034
:100030000C9447000C9447000C9447000C94470024
:100040000C9447000C9447000C9447000C94470014
:100050000C94470011241FBECFE5D8E0DEBFCDBF12
:1000600011E0A0E6B0E0EAE2FFE002C005900D92E8
:10007000A63BB107D9F711E0A6EBB1E001C01D9294
:10008000AA3BB107E1F70E940F030C9493070C946D
:10009000000010BC87E689B980B5866880BD88E11C
:1000A0008AB908955D9BFECF8CB90895EF92FF92B7
:1000B000CF93DF93E82EE7017E01F92EE70102C01E
:1000C0000E94520089918823D9F78DE00E94520046
:1000D0008AE00E945200DF91CF91FF90EF90089547
:1000E000EF92FF92CF93DF93E82EE7017E01F92E86
:1000F000E70102C00E94520089918823D9F78DE060
:100100000E945200DF91CF91FF90EF9008955F9B86
:10011000FECF8CB10895DF92EF92FF920F931F9361
:10012000CF93DF93EC018B01DD240EC08D2D833640
:1001300008F0DD24ED2CFF240E948700FE01EE0D67
:10014000FF1D80831182D394CE01B8010E949804D0
:10015000009761F381E085BBDF91CF911F910F91F3
:10016000FF90EF90DF900895EF92FF920F931F930F
:10017000DF93CF93CDB7DEB7C456D0400FB6F89417
:10018000DEBF0FBECDBF80E690E00E9456008FEF2D
:100190009BE7A2E981509040A040E1F700C0000039
:1001A00087E690E00E94560083E7E82E80E0F82E74
:1001B0008E010F5F1F4FC801B7010E948B008FEFA8
:1001C00091EEA4E081509040A040E1F700C0000013
:1001D00086E790E00E945600C801B7010E948B009C
:1001E0008FEF91EEA4E081509040A040E1F700C075
:1001F000000082E890E00E945600C801B7010E940A
:100200008B008FEF91EEA4E081509040A040E1F789
:1002100000C00000CC59DF4F0FB6F894DEBF0FBE10
:10022000CDBFCF91DF911F910F91FF90EF90089577
:10023000FF920F931F93DF93CF93CDB7DEB7C456D2
:10024000D0400FB6F894DEBF0FBECDBF8E010F5F5A
:100250001F4FC80164E970E00E948B000E94870074
:10026000F82EC8016AE970E00E948B008F2DCC59EE
:10027000DF4F0FB6F894DEBF0FBECDBFCF91DF9139
:100280001F910F91FF900895DF93CF93CDB7DEB705
:10029000C456D0400FB6F894DEBF0FBECDBFCE011E
:1002A000019669EA70E00E948B00CC59DF4F0FB6CF
:1002B000F894DEBF0FBECDBFCF91DF9108958F922E
:1002C0009F92AF92BF92CF92DF92EF92FF920F93E5
:1002D0001F93CF93DF93982EC92ED62EE72EE82FAB
:1002E000F92FEF0109900020E9F72197CE1BDF0BD2
:1002F000E62FF72FDF010D900020E9F78D01015067
:1003000010400E1B1F0BCE01800F911F01960E9403
:100310004A03F92EA82EB92E692D7C2DAE010E941C
:100320007D04CA0DDB1D0F5F1F4FCE016D2D7E2D8D
:10033000A8010E947D048A2D9F2DDF91CF911F91EE
:100340000F91FF90EF90DF90CF90BF90AF909F9074
:100350008F900895FC0101900020E9F73197E81B88
:10036000F90BE80FF91F608308956F927F928F92C7
:100370009F92AF92BF92CF92DF92EF92FF920F9334
:100380001F93DF93CF93CDB7DEB728970FB6F894BE
:10039000DEBF0FBECDBF5C01962E872E3A0100D086
:1003A00000D000D0EDB7FEB731968E010F5F1F4F22
:1003B000ADB7BEB712961C930E93119720EBE22EA9
:1003C00020E0F22EF382E282DC018D919C919583F4
:1003D00084830E94B204EDB7FEB7319695E0C92E32
:1003E000D12CCC0EDD1EADB7BEB71296DC92CE92EC
:1003F0001197F382E282D50112968D919C91139709
:10040000958384830E94B2048DB79EB706960FB67B
:10041000F8949EBF0FBE8DBF83EB90E0B8010E94A1
:100420005F0160ED70E00E945F01B6010E945F0114
:1004300062ED70E00E945F01BC01892D982D0E9441
:100440009104A92DB82DFD0101900020E9F7319705
:10045000EA1BFB0B00D000D000D02DB73EB72F5FBA
:100460003F4FADB7BEB712967C926E92119788ED52
:1004700090E0D90113969C938E9312971596FC9356
:10048000EE9314970E94B2048DB79EB706960FB6EE
:10049000F8949EBF0FBE8DBF28960FB6F894DEBFAE
:1004A0000FBECDBFCF91DF911F910F91FF90EF90C5
:1004B000DF90CF90BF90AF909F908F907F906F9084
:1004C0000895FF920F931F93DF93CF93CDB7DEB7BD
:1004D000C851D5400FB6F894DEBF0FBECDBFF82E81
:1004E000CB01BE016F5C7E4FAE014F5F5F4F0E943C
:1004F000B501CE0187599F4FDC01EBE4F1E02CE020
:1005000001900D922150E1F70C9628E5DC011D9237
:100510002A95E9F78E0107591F4FC8016F2D0E94D8
:10052000AA01C8016BED70E00E948604C801BE01FB
:100530006F5F7F4F0E948604C8010E9456008E01A3
:100540000B5F1F4FC8016DED70E00E948B008FEFB5
:1005500091EEA4E081509040A040E1F700C000007F
:10056000CE018F5C9E4F0E945600C8016FED70E077
:100570000E948B008FEF93EDA0E381509040A0404C
:10058000E1F700C000009E0123533F4FD901E7EE81
:10059000F0E08EE001900D928150E1F7225F3F4F35
:1005A00086E5D9011D928A95E9F7CE0183539F4FC5
:1005B0006F2D0E94AA0187EE90E00E945600C85E4F
:1005C000DA4F0FB6F894DEBF0FBECDBFCF91DF91EB
:1005D0001F910F91FF90089584E886B93E9A3D9847
:1005E000089597B1987F97B997B1982B97B9DB98F1
:1005F000369A3699FECF24B135B1C9010895CF930B
:10060000DF93EC0181E00E94F1029983888382E00C
:100610000E94F1029B838A83DF91CF910895EF922C
:10062000FF920F931F93DF93CF9300D000D0CDB7ED
:10063000DEB70E9449000E94B4000E94EC028FEFD6
:1006400084BB15BAEE24E3948E010F5F1F4F85B370
:100650008E2585BB0E941801F82E8FEF93EDA0E345
:1006600081509040A040E1F700C00000C8010E9406
:10067000FF028F2DB8010E9461028F2D0E9444015C
:100680008FEF99E6A8E181509040A040E1F700C0CB
:100690000000DDCFCF93DF938230910510F482E02C
:1006A00090E0E091B801F091B90140E050E020E025
:1006B00030E026C06081718168177907E0F0681723
:1006C000790781F4828193812115310531F0D901B7
:1006D00013969C938E9312972BC09093B90180939D
:1006E000B80126C04115510519F06417750718F4B3
:1006F000AB01E901DF019F0172816381E72FF62FD2
:100700003097C1F64115510501F1481B590B443092
:10071000510580F412968D919C911397209719F0B2
:100720009B838A8304C09093B9018093B801FD0133
:10073000329646C0FD01E40FF51F8193919342501C
:10074000504011965C934E933BC02091B60130917E
:10075000B7012115310541F42091B1013091B20169
:100760003093B7012093B6012091B3013091B401C9
:100770002115310541F42DB73EB74091AF0150919D
:10078000B001241B350BE091B601F091B701E217DF
:10079000F307A0F42E1B3F0B2817390778F0AC01A4
:1007A0004E5F5F4F2417350748F04E0F5F1F509381
:1007B000B7014093B6018193919302C0E0E0F0E06D
:1007C000CF01DF91CF910895CF93DF93009709F484
:1007D00091C0FC013297138212826091B80170912E
:1007E000B9016115710581F420813181280F391F0C
:1007F0008091B6019091B7018217930799F5F09314
:10080000B701E093B60176C0DB0180E090E002C062
:10081000CD01D901AE17BF0748F412962D913C9136
:10082000139721153105A1F7CD0121C0B383A28310
:10083000EF01499159919E01240F351FA217B3076B
:1008400079F42D913C911197240F351F2E5F3F4F66
:100850003183208312962D913C9113973383228309
:10086000009729F4F093B901E093B80143C0DC018B
:100870001396FC93EE9312974D915D91A40FB51FC3
:10088000EA17FB0769F420813181240F351F2E5FA1
:100890003F4FEC0139832883228133813B832A83B4
:1008A000E0E0F0E002C0FB01BC01DB0112968D919B
:1008B0009C9113970097B9F79B012E5F3F4F8D9145
:1008C0009C911197820F931F4091B6015091B701EF
:1008D0004817590779F4309729F41092B90110920A
:1008E000B80102C013821282225030403093B70107
:1008F0002093B601DF91CF910895FB01DC0102C086
:1009000001900D9241505040D8F70895FB01DC0151
:100910000D900020E9F7119701900D920020E1F76A
:100920000895FB01DC0101900D920020E1F708958C
:10093000FB0151915523A9F0BF01DC014D914517F1
:100940004111E1F759F4CD010190002049F04D919A
:1009500040154111C9F3FB014111EFCF81E090E057
:1009600001970895AEE0B0E0E8EBF4E00C946A077C
:100970000D891E8986E08C831A8309838FEF9FE798
:100980009E838D839E01275E3F4FCE0101966F8926
:10099000788DA9010E94D504EF81F885E00FF11F41
:1009A00010822E96E4E00C948607ACE0B0E0EBED0C
:1009B000F4E00C945C076C011B018A01FC011782B6
:1009C0001682838181FFD1C12E010894411C511CE4
:1009D000F6019381F10193FD859193FF81911F01B0
:1009E000882309F4BEC1853239F493FD859193FFC4
:1009F00081911F01853229F490E0B6010E94D20650
:100A0000E7CFEE24FF2420E02032B0F48B3269F0EF
:100A10008C3228F4803251F0833271F40BC08D3265
:100A200039F0803349F421602CC02260246029C051
:100A3000286027C0206125C027FD2CC0382F3053E7
:100A40003A3098F426FF08C08E2D880FE82EEE0C61
:100A5000EE0CE80EE30E15C08F2D880FF82EFF0C5C
:100A6000FF0CF80EF30E20620CC08E3221F426FD2E
:100A700078C1206406C08C3611F4206802C0883624
:100A800049F4F10193FD859193FF81911F01882322
:100A900009F0BACF982F9554933018F090529330B4
:100AA00028F40C5F1F4FFFE3F9830DC0833631F04C
:100AB000833771F0833509F060C022C0F80180816E
:100AC00089830E5F1F4F420171E0A72EB12C16C023
:100AD00062E0662E712C600E711EF801808091809C
:100AE00026FF03C06E2D70E002C06FEF7FEFC401E0
:100AF0002C870E94C7065C0183012C852F7717C0C5
:100B000052E0652E712C600E711EF801808091807C
:100B100026FF03C06E2D70E002C06FEF7FEFC401AF
:100B20002C870E94BC065C012C852068830123FD74
:100B300020C008C080E290E0B6012C870E94D20657
:100B4000FA942C858F2D90E0A816B90698F311C061
:100B5000F40127FD859127FF81914F0190E0B601B7
:100B60002C870E94D2062C85F110FA940894A108D3
:100B7000B108A114B10461F7F1C0843611F08936CF
:100B800049F527FF08C0F801608171818281938156
:100B90000C5F1F4F09C0F80160817181882777FDC4
:100BA0008095982F0E5F1F4F4FE6B42EB22297FF0D
:100BB00009C090958095709561957F4F8F4F9F4F9D
:100BC000F0E8BF2AA2012AE030E00E94FE06782E5B
:100BD000741845C0853731F43FEEB32EB2222AE0B7
:100BE00030E025C099EFB92EB2228F36C1F08037A0
:100BF00020F4883509F0B5C00DC0803721F0883762
:100C000009F0AFC002C020E1B22AB4FE0BC084E0FC
:100C1000B82A08C0B4FE09C0E6E0BE2A06C028E033
:100C200030E005C020E130E002C020E132E0B7FE54
:100C300008C0F80160817181828193810C5F1F4F30
:100C400007C0F8016081718180E090E00E5F1F4F66
:100C5000A2010E94FE06782E7418FFE7BF22B6FE9E
:100C60000BC02EEFB2227E1438F4B4FE07C0B2FCE3
:100C700005C08FEEB82202C0A72C01C0AE2C8B2D70
:100C800090E0B4FE0DC0FE01E70DF11D2081203380
:100C900019F4E9EEBE2209C0A394B2FE06C004C056
:100CA00086789070009709F0A3948B2C9924B3FC5C
:100CB00014C0B0FE0FC0AF1428F4E72CEF0CEA18F4
:100CC000AF2C08C0E72C06C080E290E0B6010E947D
:100CD000D206A394AF14C0F304C0AF1410F4FA18F2
:100CE00001C0FF2484FE0FC080E390E0B6010E94A3
:100CF000D20682FE1FC081FE03C088E590E010C0CE
:100D000088E790E00DC0C40186789070009791F05C
:100D100081FC02C080E201C08BE2B7FC8DE290E072
:100D2000B6010E94D20606C080E390E0B6010E94A0
:100D3000D206EA947E14C0F37A94F201E70DF11D15
:100D4000808190E0B6010E94D2067720A9F706C004
:100D500080E290E0B6010E94D206FA94FF20C1F72B
:100D600037CEF6012681378102C02FEF3FEFC90150
:100D70002C96E2E10C947807FC01059061507040DC
:100D80000110D8F7809590958E0F9F1F0895FC0154
:100D90006150704001900110D8F7809590958E0FAA
:100DA0009F1F08950F931F93CF93DF938C01EB0147
:100DB0008B8181FF1BC082FF0DC02E813F818C8102
:100DC0009D812817390764F4E881F9810193F9833B
:100DD000E88306C0E885F985802F0995009731F4EE
:100DE0008E819F8101969F838E8302C00FEF1FEF3C
:100DF000C801DF91CF911F910F910895FA01AA27A1
:100E0000283051F1203181F1E8946F936E7F6E5F4D
:100E10007F4F8F4F9F4FAF4FB1E03ED0B4E03CD0FB
:100E2000670F781F891F9A1FA11D680F791F8A1FDE
:100E3000911DA11D6A0F711D811D911DA11D20D045
:100E400009F468943F912AE0269F11243019305DFF
:100E50003193DEF6CF010895462F4770405D4193F0
:100E6000B3E00FD0C9F7F6CF462F4F70405D4A333D
:100E700018F0495D31FD4052419302D0A9F7EACF05
:100E8000B4E0A6959795879577956795BA95C9F734
:100E900000976105710508959B01AC010A2E069427
:100EA0005795479537952795BA95C9F7620F731FE0
:100EB000841F951FA01D08952F923F924F925F921D
:100EC0006F927F928F929F92AF92BF92CF92DF925A
:100ED000EF92FF920F931F93CF93DF93CDB7DEB7BF
:100EE000CA1BDB0B0FB6F894DEBF0FBECDBF099453
:100EF0002A88398848885F846E847D848C849B84AA
:100F0000AA84B984C884DF80EE80FD800C811B81B7
:100F1000AA81B981CE0FD11D0FB6F894DEBF0FBEE6
:0A0F2000CDBFED010895F894FFCF56
:100F2A0041542B5253540041542B43574D4F44457F
:100F3A003D33004F4B0041542B4349504D55583DCA
:100F4A00310041542B4349505345525645523D3185
:100F5A002C3830002B4950442C00474554202F2070
:100F6A00485454502F312E3100434C4F53454400BE
:100F7A002575003C68313E45617274687175616B14
:100F8A006520646174613C2F68313E3C68323E00E2
:100F9A0020003C2F68323E002569002C003E005399
:100FAA00454E44204F4B0041542B434950434C4F2C
:100FBA0053453D350000000000000000000000001D
:100FCA000000000000000000000000000000000017
:100FDA000000000000000000000000000000000007
:100FEA0000000000000000000000000000000000F7
:100FFA0000000000000000000000000000000000E7
:10100A00000000000000000000000041542B43498A
:10101A005053454E443D000000000000000000000F
:10102A0000000000000000000000000000000000B6
:10103A0000000000000000000000000000000000A6
:10104A000000000000000000000000000000000096
:10105A000000000000000000000000000000000086
:10106A000000000000000000000000000000002056
:06107A0000BA01000000B5
:00000001FF
